{
  "_format": "hh-sol-artifact-1",
  "contractName": "ScoreStorage",
  "sourceName": "contracts/ScoreStorage.sol",
  "abi": [
    {
      "inputs": [],
      "stateMutability": "nonpayable",
      "type": "constructor"
    },
    {
      "inputs": [
        {
          "internalType": "string",
          "name": "matchId",
          "type": "string"
        }
      ],
      "name": "getMatchResult",
      "outputs": [
        {
          "internalType": "string",
          "name": "",
          "type": "string"
        },
        {
          "internalType": "string",
          "name": "",
          "type": "string"
        }
      ],
      "stateMutability": "view",
      "type": "function"
    },
    {
      "inputs": [
        {
          "internalType": "string",
          "name": "",
          "type": "string"
        }
      ],
      "name": "matches",
      "outputs": [
        {
          "internalType": "string",
          "name": "team",
          "type": "string"
        },
        {
          "internalType": "string",
          "name": "score",
          "type": "string"
        }
      ],
      "stateMutability": "view",
      "type": "function"
    },
    {
      "inputs": [],
      "name": "owner",
      "outputs": [
        {
          "internalType": "address",
          "name": "",
          "type": "address"
        }
      ],
      "stateMutability": "view",
      "type": "function"
    },
    {
      "inputs": [
        {
          "internalType": "string",
          "name": "matchId",
          "type": "string"
        },
        {
          "internalType": "string",
          "name": "team",
          "type": "string"
        },
        {
          "internalType": "string",
          "name": "score",
          "type": "string"
        }
      ],
      "name": "setMatchResult",
      "outputs": [],
      "stateMutability": "nonpayable",
      "type": "function"
    }
  ],
  "bytecode": "0x608060405234801561001057600080fd5b5033600160006101000a81548173ffffffffffffffffffffffffffffffffffffffff021916908373ffffffffffffffffffffffffffffffffffffffff160217905550610a27806100616000396000f3fe608060405234801561001057600080fd5b506004361061004c5760003560e01c80631de8a41e1461005157806332ac752b1461006d5780638da5cb5b1461009e578063f8bec5dc146100bc575b600080fd5b61006b600480360381019061006691906106c6565b6100ed565b005b6100876004803603810190610082919061076d565b6101f2565b60405161009592919061083e565b60405180910390f35b6100a661033c565b6040516100b391906108b6565b60405180910390f35b6100d660048036038101906100d1919061076d565b610362565b6040516100e492919061083e565b60405180910390f35b600160009054906101000a900473ffffffffffffffffffffffffffffffffffffffff1673ffffffffffffffffffffffffffffffffffffffff163373ffffffffffffffffffffffffffffffffffffffff161461017d576040517f08c379a00000000000000000000000000000000000000000000000000000000081526004016101749061091d565b60405180910390fd5b6040518060400160405280838152602001828152506000846040516101a29190610979565b908152602001604051809103902060008201518160000190805190602001906101cc9291906104c9565b5060208201518160010190805190602001906101e99291906104c9565b50905050505050565b60008180516020810182018051848252602083016020850120818352809550505050505060009150905080600001805461022b906109bf565b80601f0160208091040260200160405190810160405280929190818152602001828054610257906109bf565b80156102a45780601f10610279576101008083540402835291602001916102a4565b820191906000526020600020905b81548152906001019060200180831161028757829003601f168201915b5050505050908060010180546102b9906109bf565b80601f01602080910402602001604051908101604052809291908181526020018280546102e5906109bf565b80156103325780601f1061030757610100808354040283529160200191610332565b820191906000526020600020905b81548152906001019060200180831161031557829003601f168201915b5050505050905082565b600160009054906101000a900473ffffffffffffffffffffffffffffffffffffffff1681565b606080600080846040516103769190610979565b908152602001604051809103902060405180604001604052908160008201805461039f906109bf565b80601f01602080910402602001604051908101604052809291908181526020018280546103cb906109bf565b80156104185780601f106103ed57610100808354040283529160200191610418565b820191906000526020600020905b8154815290600101906020018083116103fb57829003601f168201915b50505050508152602001600182018054610431906109bf565b80601f016020809104026020016040519081016040528092919081815260200182805461045d906109bf565b80156104aa5780601f1061047f576101008083540402835291602001916104aa565b820191906000526020600020905b81548152906001019060200180831161048d57829003601f168201915b5050505050815250509050806000015181602001519250925050915091565b8280546104d5906109bf565b90600052602060002090601f0160209004810192826104f7576000855561053e565b82601f1061051057805160ff191683800117855561053e565b8280016001018555821561053e579182015b8281111561053d578251825591602001919060010190610522565b5b50905061054b919061054f565b5090565b5b80821115610568576000816000905550600101610550565b5090565b6000604051905090565b600080fd5b600080fd5b600080fd5b600080fd5b6000601f19601f8301169050919050565b7f4e487b7100000000000000000000000000000000000000000000000000000000600052604160045260246000fd5b6105d38261058a565b810181811067ffffffffffffffff821117156105f2576105f161059b565b5b80604052505050565b600061060561056c565b905061061182826105ca565b919050565b600067ffffffffffffffff8211156106315761063061059b565b5b61063a8261058a565b9050602081019050919050565b82818337600083830152505050565b600061066961066484610616565b6105fb565b90508281526020810184848401111561068557610684610585565b5b610690848285610647565b509392505050565b600082601f8301126106ad576106ac610580565b5b81356106bd848260208601610656565b91505092915050565b6000806000606084860312156106df576106de610576565b5b600084013567ffffffffffffffff8111156106fd576106fc61057b565b5b61070986828701610698565b935050602084013567ffffffffffffffff81111561072a5761072961057b565b5b61073686828701610698565b925050604084013567ffffffffffffffff8111156107575761075661057b565b5b61076386828701610698565b9150509250925092565b60006020828403121561078357610782610576565b5b600082013567ffffffffffffffff8111156107a1576107a061057b565b5b6107ad84828501610698565b91505092915050565b600081519050919050565b600082825260208201905092915050565b60005b838110156107f05780820151818401526020810190506107d5565b838111156107ff576000848401525b50505050565b6000610810826107b6565b61081a81856107c1565b935061082a8185602086016107d2565b6108338161058a565b840191505092915050565b600060408201905081810360008301526108588185610805565b9050818103602083015261086c8184610805565b90509392505050565b600073ffffffffffffffffffffffffffffffffffffffff82169050919050565b60006108a082610875565b9050919050565b6108b081610895565b82525050565b60006020820190506108cb60008301846108a7565b92915050565b7f4e6f7420617574686f72697a6564000000000000000000000000000000000000600082015250565b6000610907600e836107c1565b9150610912826108d1565b602082019050919050565b60006020820190508181036000830152610936816108fa565b9050919050565b600081905092915050565b6000610953826107b6565b61095d818561093d565b935061096d8185602086016107d2565b80840191505092915050565b60006109858284610948565b915081905092915050565b7f4e487b7100000000000000000000000000000000000000000000000000000000600052602260045260246000fd5b600060028204905060018216806109d757607f821691505b602082108114156109eb576109ea610990565b5b5091905056fea2646970667358221220c4c7f38af7e52c9db6490d2a78ff510ab25bc8afb4a8aefd4635bfbc8000083664736f6c63430008080033",
  "linkReferences": {},
  "deployedLinkReferences": {}
}