{
  "_format": "hh-sol-artifact-1",
  "contractName": "ScoreStorage",
  "sourceName": "contracts/ScoreStorage.sol",
  "abi": [
    {
      "inputs": [],
      "stateMutability": "nonpayable",
      "type": "constructor"
    },
    {
      "inputs": [
        {
          "internalType": "string",
          "name": "matchId",
          "type": "string"
        }
      ],
      "name": "getMatchResult",
      "outputs": [
        {
          "internalType": "string",
          "name": "",
          "type": "string"
        },
        {
          "internalType": "string",
          "name": "",
          "type": "string"
        }
      ],
      "stateMutability": "view",
      "type": "function"
    },
    {
      "inputs": [
        {
          "internalType": "string",
          "name": "",
          "type": "string"
        }
      ],
      "name": "isMatchRegistered",
      "outputs": [
        {
          "internalType": "bool",
          "name": "",
          "type": "bool"
        }
      ],
      "stateMutability": "view",
      "type": "function"
    },
    {
      "inputs": [
        {
          "internalType": "string",
          "name": "",
          "type": "string"
        }
      ],
      "name": "matches",
      "outputs": [
        {
          "internalType": "string",
          "name": "team",
          "type": "string"
        },
        {
          "internalType": "string",
          "name": "score",
          "type": "string"
        }
      ],
      "stateMutability": "view",
      "type": "function"
    },
    {
      "inputs": [],
      "name": "owner",
      "outputs": [
        {
          "internalType": "address",
          "name": "",
          "type": "address"
        }
      ],
      "stateMutability": "view",
      "type": "function"
    },
    {
      "inputs": [
        {
          "internalType": "string",
          "name": "matchId",
          "type": "string"
        },
        {
          "internalType": "string",
          "name": "team",
          "type": "string"
        },
        {
          "internalType": "string",
          "name": "score",
          "type": "string"
        }
      ],
      "name": "setMatchResult",
      "outputs": [],
      "stateMutability": "nonpayable",
      "type": "function"
    }
  ],
  "bytecode": "0x608060405234801561001057600080fd5b5033600260006101000a81548173ffffffffffffffffffffffffffffffffffffffff021916908373ffffffffffffffffffffffffffffffffffffffff160217905550610bdc806100616000396000f3fe608060405234801561001057600080fd5b50600436106100575760003560e01c80631de8a41e1461005c57806332ac752b146100785780635fd4036f146100a95780638da5cb5b146100d9578063f8bec5dc146100f7575b600080fd5b610076600480360381019061007191906107d9565b610128565b005b610092600480360381019061008d9190610880565b6102cf565b6040516100a0929190610951565b60405180910390f35b6100c360048036038101906100be9190610880565b610419565b6040516100d091906109a3565b60405180910390f35b6100e161044f565b6040516100ee91906109ff565b60405180910390f35b610111600480360381019061010c9190610880565b610475565b60405161011f929190610951565b60405180910390f35b600260009054906101000a900473ffffffffffffffffffffffffffffffffffffffff1673ffffffffffffffffffffffffffffffffffffffff163373ffffffffffffffffffffffffffffffffffffffff16146101b8576040517f08c379a00000000000000000000000000000000000000000000000000000000081526004016101af90610a66565b60405180910390fd5b6001836040516101c89190610ac2565b908152602001604051809103902060009054906101000a900460ff1615610224576040517f08c379a000000000000000000000000000000000000000000000000000000000815260040161021b90610b25565b60405180910390fd5b6040518060400160405280838152602001828152506000846040516102499190610ac2565b908152602001604051809103902060008201518160000190805190602001906102739291906105dc565b5060208201518160010190805190602001906102909291906105dc565b50905050600180846040516102a59190610ac2565b908152602001604051809103902060006101000a81548160ff021916908315150217905550505050565b60008180516020810182018051848252602083016020850120818352809550505050505060009150905080600001805461030890610b74565b80601f016020809104026020016040519081016040528092919081815260200182805461033490610b74565b80156103815780601f1061035657610100808354040283529160200191610381565b820191906000526020600020905b81548152906001019060200180831161036457829003601f168201915b50505050509080600101805461039690610b74565b80601f01602080910402602001604051908101604052809291908181526020018280546103c290610b74565b801561040f5780601f106103e45761010080835404028352916020019161040f565b820191906000526020600020905b8154815290600101906020018083116103f257829003601f168201915b5050505050905082565b6001818051602081018201805184825260208301602085012081835280955050505050506000915054906101000a900460ff1681565b600260009054906101000a900473ffffffffffffffffffffffffffffffffffffffff1681565b606080600080846040516104899190610ac2565b90815260200160405180910390206040518060400160405290816000820180546104b290610b74565b80601f01602080910402602001604051908101604052809291908181526020018280546104de90610b74565b801561052b5780601f106105005761010080835404028352916020019161052b565b820191906000526020600020905b81548152906001019060200180831161050e57829003601f168201915b5050505050815260200160018201805461054490610b74565b80601f016020809104026020016040519081016040528092919081815260200182805461057090610b74565b80156105bd5780601f10610592576101008083540402835291602001916105bd565b820191906000526020600020905b8154815290600101906020018083116105a057829003601f168201915b5050505050815250509050806000015181602001519250925050915091565b8280546105e890610b74565b90600052602060002090601f01602090048101928261060a5760008555610651565b82601f1061062357805160ff1916838001178555610651565b82800160010185558215610651579182015b82811115610650578251825591602001919060010190610635565b5b50905061065e9190610662565b5090565b5b8082111561067b576000816000905550600101610663565b5090565b6000604051905090565b600080fd5b600080fd5b600080fd5b600080fd5b6000601f19601f8301169050919050565b7f4e487b7100000000000000000000000000000000000000000000000000000000600052604160045260246000fd5b6106e68261069d565b810181811067ffffffffffffffff82111715610705576107046106ae565b5b80604052505050565b600061071861067f565b905061072482826106dd565b919050565b600067ffffffffffffffff821115610744576107436106ae565b5b61074d8261069d565b9050602081019050919050565b82818337600083830152505050565b600061077c61077784610729565b61070e565b90508281526020810184848401111561079857610797610698565b5b6107a384828561075a565b509392505050565b600082601f8301126107c0576107bf610693565b5b81356107d0848260208601610769565b91505092915050565b6000806000606084860312156107f2576107f1610689565b5b600084013567ffffffffffffffff8111156108105761080f61068e565b5b61081c868287016107ab565b935050602084013567ffffffffffffffff81111561083d5761083c61068e565b5b610849868287016107ab565b925050604084013567ffffffffffffffff81111561086a5761086961068e565b5b610876868287016107ab565b9150509250925092565b60006020828403121561089657610895610689565b5b600082013567ffffffffffffffff8111156108b4576108b361068e565b5b6108c0848285016107ab565b91505092915050565b600081519050919050565b600082825260208201905092915050565b60005b838110156109035780820151818401526020810190506108e8565b83811115610912576000848401525b50505050565b6000610923826108c9565b61092d81856108d4565b935061093d8185602086016108e5565b6109468161069d565b840191505092915050565b6000604082019050818103600083015261096b8185610918565b9050818103602083015261097f8184610918565b90509392505050565b60008115159050919050565b61099d81610988565b82525050565b60006020820190506109b86000830184610994565b92915050565b600073ffffffffffffffffffffffffffffffffffffffff82169050919050565b60006109e9826109be565b9050919050565b6109f9816109de565b82525050565b6000602082019050610a1460008301846109f0565b92915050565b7f4e6f7420617574686f72697a6564000000000000000000000000000000000000600082015250565b6000610a50600e836108d4565b9150610a5b82610a1a565b602082019050919050565b60006020820190508181036000830152610a7f81610a43565b9050919050565b600081905092915050565b6000610a9c826108c9565b610aa68185610a86565b9350610ab68185602086016108e5565b80840191505092915050565b6000610ace8284610a91565b915081905092915050565b7f4d6174636820616c726561647920726567697374657265640000000000000000600082015250565b6000610b0f6018836108d4565b9150610b1a82610ad9565b602082019050919050565b60006020820190508181036000830152610b3e81610b02565b9050919050565b7f4e487b7100000000000000000000000000000000000000000000000000000000600052602260045260246000fd5b60006002820490506001821680610b8c57607f821691505b60208210811415610ba057610b9f610b45565b5b5091905056fea26469706673582212203fff735e6154c794f33929e00b324e5cfa236cd3e8b4f0b8f7b4880bf967faa764736f6c63430008080033",
  "linkReferences": {},
  "deployedLinkReferences": {}
}